{
	"contracts/Array_2.sol": {
		"arraySample": {
			"abi": [
				{
					"anonymous": false,
					"inputs": [
						{
							"indexed": false,
							"internalType": "uint8",
							"name": "index",
							"type": "uint8"
						},
						{
							"indexed": false,
							"internalType": "uint8",
							"name": "value",
							"type": "uint8"
						}
					],
					"name": "AgeUpdated",
					"type": "event"
				},
				{
					"anonymous": false,
					"inputs": [
						{
							"indexed": false,
							"internalType": "uint256",
							"name": "value",
							"type": "uint256"
						}
					],
					"name": "PhoneNumberAdded",
					"type": "event"
				},
				{
					"inputs": [
						{
							"internalType": "uint256",
							"name": "_index",
							"type": "uint256"
						}
					],
					"name": "deletePhoneNumber",
					"outputs": [],
					"stateMutability": "nonpayable",
					"type": "function"
				},
				{
					"inputs": [],
					"name": "getAllPhoneNumbers",
					"outputs": [
						{
							"internalType": "uint256[]",
							"name": "",
							"type": "uint256[]"
						}
					],
					"stateMutability": "view",
					"type": "function"
				},
				{
					"inputs": [
						{
							"internalType": "uint8",
							"name": "_index",
							"type": "uint8"
						}
					],
					"name": "getData",
					"outputs": [
						{
							"internalType": "uint8",
							"name": "",
							"type": "uint8"
						}
					],
					"stateMutability": "view",
					"type": "function"
				},
				{
					"inputs": [
						{
							"internalType": "uint256",
							"name": "_index",
							"type": "uint256"
						}
					],
					"name": "getDynamicArray",
					"outputs": [
						{
							"internalType": "uint256",
							"name": "",
							"type": "uint256"
						}
					],
					"stateMutability": "view",
					"type": "function"
				},
				{
					"inputs": [],
					"name": "getPhoneNumberCount",
					"outputs": [
						{
							"internalType": "uint256",
							"name": "",
							"type": "uint256"
						}
					],
					"stateMutability": "view",
					"type": "function"
				},
				{
					"inputs": [
						{
							"internalType": "uint8",
							"name": "index",
							"type": "uint8"
						},
						{
							"internalType": "uint8",
							"name": "value",
							"type": "uint8"
						}
					],
					"name": "setData",
					"outputs": [],
					"stateMutability": "nonpayable",
					"type": "function"
				},
				{
					"inputs": [
						{
							"internalType": "uint256",
							"name": "_phoneno",
							"type": "uint256"
						}
					],
					"name": "setDynamicArray",
					"outputs": [],
					"stateMutability": "nonpayable",
					"type": "function"
				},
				{
					"inputs": [
						{
							"internalType": "uint256",
							"name": "_index",
							"type": "uint256"
						},
						{
							"internalType": "uint256",
							"name": "_newNumber",
							"type": "uint256"
						}
					],
					"name": "updatePhoneNumber",
					"outputs": [],
					"stateMutability": "nonpayable",
					"type": "function"
				}
			],
			"devdoc": {
				"kind": "dev",
				"methods": {},
				"version": 1
			},
			"evm": {
				"assembly": "    /* \"contracts/Array_2.sol\":61:2171  contract arraySample {\r... */\n  mstore(0x40, 0x80)\n  callvalue\n  dup1\n  iszero\n  tag_1\n  jumpi\n  0x00\n  dup1\n  revert\ntag_1:\n  pop\n  dataSize(sub_0)\n  dup1\n  dataOffset(sub_0)\n  0x00\n  codecopy\n  0x00\n  return\nstop\n\nsub_0: assembly {\n        /* \"contracts/Array_2.sol\":61:2171  contract arraySample {\r... */\n      mstore(0x40, 0x80)\n      callvalue\n      dup1\n      iszero\n      tag_1\n      jumpi\n      0x00\n      dup1\n      revert\n    tag_1:\n      pop\n      jumpi(tag_2, lt(calldatasize, 0x04))\n      shr(0xe0, calldataload(0x00))\n      dup1\n      0x71bb2e39\n      gt\n      tag_11\n      jumpi\n      dup1\n      0x71bb2e39\n      eq\n      tag_7\n      jumpi\n      dup1\n      0xabebb54f\n      eq\n      tag_8\n      jumpi\n      dup1\n      0xd83d2b95\n      eq\n      tag_9\n      jumpi\n      dup1\n      0xf4c86ca9\n      eq\n      tag_10\n      jumpi\n      jump(tag_2)\n    tag_11:\n      dup1\n      0x1e3d73a1\n      eq\n      tag_3\n      jumpi\n      dup1\n      0x3f26c8ee\n      eq\n      tag_4\n      jumpi\n      dup1\n      0x55bc1d3c\n      eq\n      tag_5\n      jumpi\n      dup1\n      0x575bfc46\n      eq\n      tag_6\n      jumpi\n    tag_2:\n      0x00\n      dup1\n      revert\n        /* \"contracts/Array_2.sol\":509:720  function setData(uint8 index, uint8 value) public {\r... */\n    tag_3:\n      tag_12\n      0x04\n      dup1\n      calldatasize\n      sub\n      0x40\n      dup2\n      lt\n      iszero\n      tag_13\n      jumpi\n      0x00\n      dup1\n      revert\n    tag_13:\n      dup2\n      add\n      swap1\n      dup1\n      dup1\n      calldataload\n      0xff\n      and\n      swap1\n      0x20\n      add\n      swap1\n      swap3\n      swap2\n      swap1\n      dup1\n      calldataload\n      0xff\n      and\n      swap1\n      0x20\n      add\n      swap1\n      swap3\n      swap2\n      swap1\n      pop\n      pop\n      pop\n      tag_14\n      jump\t// in\n    tag_12:\n      stop\n        /* \"contracts/Array_2.sol\":1566:1750  function updatePhoneNumber(uint _index, uint _newNumber) public {\r... */\n    tag_4:\n      tag_15\n      0x04\n      dup1\n      calldatasize\n      sub\n      0x40\n      dup2\n      lt\n      iszero\n      tag_16\n      jumpi\n      0x00\n      dup1\n      revert\n    tag_16:\n      dup2\n      add\n      swap1\n      dup1\n      dup1\n      calldataload\n      swap1\n      0x20\n      add\n      swap1\n      swap3\n      swap2\n      swap1\n      dup1\n      calldataload\n      swap1\n      0x20\n      add\n      swap1\n      swap3\n      swap2\n      swap1\n      pop\n      pop\n      pop\n      tag_17\n      jump\t// in\n    tag_15:\n      stop\n        /* \"contracts/Array_2.sol\":1409:1511  function getPhoneNumberCount() public view returns (uint) {\r... */\n    tag_5:\n      tag_18\n      tag_19\n      jump\t// in\n    tag_18:\n      mload(0x40)\n      dup1\n      dup3\n      dup2\n      mstore\n      0x20\n      add\n      swap2\n      pop\n      pop\n      mload(0x40)\n      dup1\n      swap2\n      sub\n      swap1\n      return\n        /* \"contracts/Array_2.sol\":769:926  function getData(uint8 _index) public view returns (uint8) {\r... */\n    tag_6:\n      tag_20\n      0x04\n      dup1\n      calldatasize\n      sub\n      0x20\n      dup2\n      lt\n      iszero\n      tag_21\n      jumpi\n      0x00\n      dup1\n      revert\n    tag_21:\n      dup2\n      add\n      swap1\n      dup1\n      dup1\n      calldataload\n      0xff\n      and\n      swap1\n      0x20\n      add\n      swap1\n      swap3\n      swap2\n      swap1\n      pop\n      pop\n      pop\n      tag_22\n      jump\t// in\n    tag_20:\n      mload(0x40)\n      dup1\n      dup3\n      0xff\n      and\n      dup2\n      mstore\n      0x20\n      add\n      swap2\n      pop\n      pop\n      mload(0x40)\n      dup1\n      swap2\n      sub\n      swap1\n      return\n        /* \"contracts/Array_2.sol\":2065:2168  function getAllPhoneNumbers() public view returns (uint[] memory) {\r... */\n    tag_7:\n      tag_23\n      tag_24\n      jump\t// in\n    tag_23:\n      mload(0x40)\n      dup1\n      dup1\n      0x20\n      add\n      dup3\n      dup2\n      sub\n      dup3\n      mstore\n      dup4\n      dup2\n      dup2\n      mload\n      dup2\n      mstore\n      0x20\n      add\n      swap2\n      pop\n      dup1\n      mload\n      swap1\n      0x20\n      add\n      swap1\n      0x20\n      mul\n      dup1\n      dup4\n      dup4\n      0x00\n    tag_25:\n      dup4\n      dup2\n      lt\n      iszero\n      tag_27\n      jumpi\n      dup1\n      dup3\n      add\n      mload\n      dup2\n      dup5\n      add\n      mstore\n      0x20\n      dup2\n      add\n      swap1\n      pop\n      jump(tag_25)\n    tag_27:\n      pop\n      pop\n      pop\n      pop\n      swap1\n      pop\n      add\n      swap3\n      pop\n      pop\n      pop\n      mload(0x40)\n      dup1\n      swap2\n      sub\n      swap1\n      return\n        /* \"contracts/Array_2.sol\":976:1128  function setDynamicArray(uint _phoneno) public {\r... */\n    tag_8:\n      tag_28\n      0x04\n      dup1\n      calldatasize\n      sub\n      0x20\n      dup2\n      lt\n      iszero\n      tag_29\n      jumpi\n      0x00\n      dup1\n      revert\n    tag_29:\n      dup2\n      add\n      swap1\n      dup1\n      dup1\n      calldataload\n      swap1\n      0x20\n      add\n      swap1\n      swap3\n      swap2\n      swap1\n      pop\n      pop\n      pop\n      tag_30\n      jump\t// in\n    tag_28:\n      stop\n        /* \"contracts/Array_2.sol\":1826:2005  function deletePhoneNumber(uint _index) public {\r... */\n    tag_9:\n      tag_31\n      0x04\n      dup1\n      calldatasize\n      sub\n      0x20\n      dup2\n      lt\n      iszero\n      tag_32\n      jumpi\n      0x00\n      dup1\n      revert\n    tag_32:\n      dup2\n      add\n      swap1\n      dup1\n      dup1\n      calldataload\n      swap1\n      0x20\n      add\n      swap1\n      swap3\n      swap2\n      swap1\n      pop\n      pop\n      pop\n      tag_33\n      jump\t// in\n    tag_31:\n      stop\n        /* \"contracts/Array_2.sol\":1179:1353  function getDynamicArray(uint _index) public view returns (uint) {\r... */\n    tag_10:\n      tag_34\n      0x04\n      dup1\n      calldatasize\n      sub\n      0x20\n      dup2\n      lt\n      iszero\n      tag_35\n      jumpi\n      0x00\n      dup1\n      revert\n    tag_35:\n      dup2\n      add\n      swap1\n      dup1\n      dup1\n      calldataload\n      swap1\n      0x20\n      add\n      swap1\n      swap3\n      swap2\n      swap1\n      pop\n      pop\n      pop\n      tag_36\n      jump\t// in\n    tag_34:\n      mload(0x40)\n      dup1\n      dup3\n      dup2\n      mstore\n      0x20\n      add\n      swap2\n      pop\n      pop\n      mload(0x40)\n      dup1\n      swap2\n      sub\n      swap1\n      return\n        /* \"contracts/Array_2.sol\":509:720  function setData(uint8 index, uint8 value) public {\r... */\n    tag_14:\n        /* \"contracts/Array_2.sol\":586:588  50 */\n      0x32\n        /* \"contracts/Array_2.sol\":578:583  index */\n      dup3\n        /* \"contracts/Array_2.sol\":578:588  index < 50 */\n      0xff\n      and\n      lt\n        /* \"contracts/Array_2.sol\":570:619  require(index < 50, \"Index out of bounds (0-49)\") */\n      tag_38\n      jumpi\n      mload(0x40)\n      0x08c379a000000000000000000000000000000000000000000000000000000000\n      dup2\n      mstore\n      0x04\n      add\n      dup1\n      dup1\n      0x20\n      add\n      dup3\n      dup2\n      sub\n      dup3\n      mstore\n      0x1a\n      dup2\n      mstore\n      0x20\n      add\n      dup1\n      0x496e646578206f7574206f6620626f756e64732028302d343929000000000000\n      dup2\n      mstore\n      pop\n      0x20\n      add\n      swap2\n      pop\n      pop\n      mload(0x40)\n      dup1\n      swap2\n      sub\n      swap1\n      revert\n    tag_38:\n        /* \"contracts/Array_2.sol\":643:648  value */\n      dup1\n        /* \"contracts/Array_2.sol\":630:633  age */\n      0x00\n        /* \"contracts/Array_2.sol\":634:639  index */\n      dup4\n        /* \"contracts/Array_2.sol\":630:640  age[index] */\n      0xff\n      and\n      0x32\n      dup2\n      lt\n      tag_39\n      jumpi\n      invalid\n    tag_39:\n      0x20\n      swap2\n      dup3\n      dup3\n      div\n      add\n      swap2\n      swap1\n      mod\n        /* \"contracts/Array_2.sol\":630:648  age[index] = value */\n      0x0100\n      exp\n      dup2\n      sload\n      dup2\n      0xff\n      mul\n      not\n      and\n      swap1\n      dup4\n      0xff\n      and\n      mul\n      or\n      swap1\n      sstore\n      pop\n        /* \"contracts/Array_2.sol\":664:688  AgeUpdated(index, value) */\n      0xe709d237b9abb48e7255ee2a00fb543cf1138ff217ef3553a3adaaaee9c4924a\n        /* \"contracts/Array_2.sol\":675:680  index */\n      dup3\n        /* \"contracts/Array_2.sol\":682:687  value */\n      dup3\n        /* \"contracts/Array_2.sol\":664:688  AgeUpdated(index, value) */\n      mload(0x40)\n      dup1\n      dup4\n      0xff\n      and\n      dup2\n      mstore\n      0x20\n      add\n      dup3\n      0xff\n      and\n      dup2\n      mstore\n      0x20\n      add\n      swap3\n      pop\n      pop\n      pop\n      mload(0x40)\n      dup1\n      swap2\n      sub\n      swap1\n      log1\n        /* \"contracts/Array_2.sol\":509:720  function setData(uint8 index, uint8 value) public {\r... */\n      pop\n      pop\n      jump\t// out\n        /* \"contracts/Array_2.sol\":1566:1750  function updatePhoneNumber(uint _index, uint _newNumber) public {\r... */\n    tag_17:\n        /* \"contracts/Array_2.sol\":1658:1669  phoneNumber */\n      0x02\n        /* \"contracts/Array_2.sol\":1658:1676  phoneNumber.length */\n      dup1\n      sload\n      swap1\n      pop\n        /* \"contracts/Array_2.sol\":1649:1655  _index */\n      dup3\n        /* \"contracts/Array_2.sol\":1649:1676  _index < phoneNumber.length */\n      lt\n        /* \"contracts/Array_2.sol\":1641:1699  require(_index < phoneNumber.length, \"Index out of range\") */\n      tag_42\n      jumpi\n      mload(0x40)\n      0x08c379a000000000000000000000000000000000000000000000000000000000\n      dup2\n      mstore\n      0x04\n      add\n      dup1\n      dup1\n      0x20\n      add\n      dup3\n      dup2\n      sub\n      dup3\n      mstore\n      0x12\n      dup2\n      mstore\n      0x20\n      add\n      dup1\n      0x496e646578206f7574206f662072616e67650000000000000000000000000000\n      dup2\n      mstore\n      pop\n      0x20\n      add\n      swap2\n      pop\n      pop\n      mload(0x40)\n      dup1\n      swap2\n      sub\n      swap1\n      revert\n    tag_42:\n        /* \"contracts/Array_2.sol\":1732:1742  _newNumber */\n      dup1\n        /* \"contracts/Array_2.sol\":1710:1721  phoneNumber */\n      0x02\n        /* \"contracts/Array_2.sol\":1722:1728  _index */\n      dup4\n        /* \"contracts/Array_2.sol\":1710:1729  phoneNumber[_index] */\n      dup2\n      sload\n      dup2\n      lt\n      tag_43\n      jumpi\n      invalid\n    tag_43:\n      swap1\n      0x00\n      mstore\n      keccak256(0x00, 0x20)\n      add\n        /* \"contracts/Array_2.sol\":1710:1742  phoneNumber[_index] = _newNumber */\n      dup2\n      swap1\n      sstore\n      pop\n        /* \"contracts/Array_2.sol\":1566:1750  function updatePhoneNumber(uint _index, uint _newNumber) public {\r... */\n      pop\n      pop\n      jump\t// out\n        /* \"contracts/Array_2.sol\":1409:1511  function getPhoneNumberCount() public view returns (uint) {\r... */\n    tag_19:\n        /* \"contracts/Array_2.sol\":1461:1465  uint */\n      0x00\n        /* \"contracts/Array_2.sol\":1485:1496  phoneNumber */\n      0x02\n        /* \"contracts/Array_2.sol\":1485:1503  phoneNumber.length */\n      dup1\n      sload\n      swap1\n      pop\n        /* \"contracts/Array_2.sol\":1478:1503  return phoneNumber.length */\n      swap1\n      pop\n        /* \"contracts/Array_2.sol\":1409:1511  function getPhoneNumberCount() public view returns (uint) {\r... */\n      swap1\n      jump\t// out\n        /* \"contracts/Array_2.sol\":769:926  function getData(uint8 _index) public view returns (uint8) {\r... */\n    tag_22:\n        /* \"contracts/Array_2.sol\":821:826  uint8 */\n      0x00\n        /* \"contracts/Array_2.sol\":856:858  50 */\n      0x32\n        /* \"contracts/Array_2.sol\":847:853  _index */\n      dup3\n        /* \"contracts/Array_2.sol\":847:858  _index < 50 */\n      0xff\n      and\n      lt\n        /* \"contracts/Array_2.sol\":839:889  require(_index < 50, \"Index out of bounds (0-49)\") */\n      tag_47\n      jumpi\n      mload(0x40)\n      0x08c379a000000000000000000000000000000000000000000000000000000000\n      dup2\n      mstore\n      0x04\n      add\n      dup1\n      dup1\n      0x20\n      add\n      dup3\n      dup2\n      sub\n      dup3\n      mstore\n      0x1a\n      dup2\n      mstore\n      0x20\n      add\n      dup1\n      0x496e646578206f7574206f6620626f756e64732028302d343929000000000000\n      dup2\n      mstore\n      pop\n      0x20\n      add\n      swap2\n      pop\n      pop\n      mload(0x40)\n      dup1\n      swap2\n      sub\n      swap1\n      revert\n    tag_47:\n        /* \"contracts/Array_2.sol\":907:910  age */\n      0x00\n        /* \"contracts/Array_2.sol\":911:917  _index */\n      dup3\n        /* \"contracts/Array_2.sol\":907:918  age[_index] */\n      0xff\n      and\n      0x32\n      dup2\n      lt\n      tag_48\n      jumpi\n      invalid\n    tag_48:\n      0x20\n      swap2\n      dup3\n      dup3\n      div\n      add\n      swap2\n      swap1\n      mod\n      swap1\n      sload\n      swap1\n      0x0100\n      exp\n      swap1\n      div\n      0xff\n      and\n        /* \"contracts/Array_2.sol\":900:918  return age[_index] */\n      swap1\n      pop\n        /* \"contracts/Array_2.sol\":769:926  function getData(uint8 _index) public view returns (uint8) {\r... */\n      swap2\n      swap1\n      pop\n      jump\t// out\n        /* \"contracts/Array_2.sol\":2065:2168  function getAllPhoneNumbers() public view returns (uint[] memory) {\r... */\n    tag_24:\n        /* \"contracts/Array_2.sol\":2116:2129  uint[] memory */\n      0x60\n        /* \"contracts/Array_2.sol\":2149:2160  phoneNumber */\n      0x02\n        /* \"contracts/Array_2.sol\":2142:2160  return phoneNumber */\n      dup1\n      sload\n      dup1\n      0x20\n      mul\n      0x20\n      add\n      mload(0x40)\n      swap1\n      dup2\n      add\n      0x40\n      mstore\n      dup1\n      swap3\n      swap2\n      swap1\n      dup2\n      dup2\n      mstore\n      0x20\n      add\n      dup3\n      dup1\n      sload\n      dup1\n      iszero\n      tag_51\n      jumpi\n      0x20\n      mul\n      dup3\n      add\n      swap2\n      swap1\n      0x00\n      mstore\n      keccak256(0x00, 0x20)\n      swap1\n    tag_52:\n      dup2\n      sload\n      dup2\n      mstore\n      0x20\n      add\n      swap1\n      0x01\n      add\n      swap1\n      dup1\n      dup4\n      gt\n      tag_52\n      jumpi\n    tag_51:\n      pop\n      pop\n      pop\n      pop\n      pop\n      swap1\n      pop\n        /* \"contracts/Array_2.sol\":2065:2168  function getAllPhoneNumbers() public view returns (uint[] memory) {\r... */\n      swap1\n      jump\t// out\n        /* \"contracts/Array_2.sol\":976:1128  function setDynamicArray(uint _phoneno) public {\r... */\n    tag_30:\n        /* \"contracts/Array_2.sol\":1034:1045  phoneNumber */\n      0x02\n        /* \"contracts/Array_2.sol\":1051:1059  _phoneno */\n      dup2\n        /* \"contracts/Array_2.sol\":1034:1060  phoneNumber.push(_phoneno) */\n      swap1\n      dup1\n      0x01\n      dup2\n      sload\n      add\n      dup1\n      dup3\n      sstore\n      dup1\n      swap2\n      pop\n      pop\n      0x01\n      swap1\n      sub\n      swap1\n      0x00\n      mstore\n      keccak256(0x00, 0x20)\n      add\n      0x00\n      swap1\n      swap2\n      swap1\n      swap2\n      swap1\n      swap2\n      pop\n      sstore\n        /* \"contracts/Array_2.sol\":1076:1102  PhoneNumberAdded(_phoneno) */\n      0xea4e41ad5913b7f3f021284d839f8cf84e390c47377463895e671303785d5dbd\n        /* \"contracts/Array_2.sol\":1093:1101  _phoneno */\n      dup2\n        /* \"contracts/Array_2.sol\":1076:1102  PhoneNumberAdded(_phoneno) */\n      mload(0x40)\n      dup1\n      dup3\n      dup2\n      mstore\n      0x20\n      add\n      swap2\n      pop\n      pop\n      mload(0x40)\n      dup1\n      swap2\n      sub\n      swap1\n      log1\n        /* \"contracts/Array_2.sol\":976:1128  function setDynamicArray(uint _phoneno) public {\r... */\n      pop\n      jump\t// out\n        /* \"contracts/Array_2.sol\":1826:2005  function deletePhoneNumber(uint _index) public {\r... */\n    tag_33:\n        /* \"contracts/Array_2.sol\":1901:1912  phoneNumber */\n      0x02\n        /* \"contracts/Array_2.sol\":1901:1919  phoneNumber.length */\n      dup1\n      sload\n      swap1\n      pop\n        /* \"contracts/Array_2.sol\":1892:1898  _index */\n      dup2\n        /* \"contracts/Array_2.sol\":1892:1919  _index < phoneNumber.length */\n      lt\n        /* \"contracts/Array_2.sol\":1884:1937  require(_index < phoneNumber.length, \"Invalid index\") */\n      tag_56\n      jumpi\n      mload(0x40)\n      0x08c379a000000000000000000000000000000000000000000000000000000000\n      dup2\n      mstore\n      0x04\n      add\n      dup1\n      dup1\n      0x20\n      add\n      dup3\n      dup2\n      sub\n      dup3\n      mstore\n      0x0d\n      dup2\n      mstore\n      0x20\n      add\n      dup1\n      0x496e76616c696420696e64657800000000000000000000000000000000000000\n      dup2\n      mstore\n      pop\n      0x20\n      add\n      swap2\n      pop\n      pop\n      mload(0x40)\n      dup1\n      swap2\n      sub\n      swap1\n      revert\n    tag_56:\n        /* \"contracts/Array_2.sol\":1955:1966  phoneNumber */\n      0x02\n        /* \"contracts/Array_2.sol\":1967:1973  _index */\n      dup2\n        /* \"contracts/Array_2.sol\":1955:1974  phoneNumber[_index] */\n      dup2\n      sload\n      dup2\n      lt\n      tag_57\n      jumpi\n      invalid\n    tag_57:\n      swap1\n      0x00\n      mstore\n      keccak256(0x00, 0x20)\n      add\n        /* \"contracts/Array_2.sol\":1948:1974  delete phoneNumber[_index] */\n      0x00\n      swap1\n      sstore\n        /* \"contracts/Array_2.sol\":1826:2005  function deletePhoneNumber(uint _index) public {\r... */\n      pop\n      jump\t// out\n        /* \"contracts/Array_2.sol\":1179:1353  function getDynamicArray(uint _index) public view returns (uint) {\r... */\n    tag_36:\n        /* \"contracts/Array_2.sol\":1238:1242  uint */\n      0x00\n        /* \"contracts/Array_2.sol\":1272:1283  phoneNumber */\n      0x02\n        /* \"contracts/Array_2.sol\":1272:1290  phoneNumber.length */\n      dup1\n      sload\n      swap1\n      pop\n        /* \"contracts/Array_2.sol\":1263:1269  _index */\n      dup3\n        /* \"contracts/Array_2.sol\":1263:1290  _index < phoneNumber.length */\n      lt\n        /* \"contracts/Array_2.sol\":1255:1308  require(_index < phoneNumber.length, \"Invalid index\") */\n      tag_60\n      jumpi\n      mload(0x40)\n      0x08c379a000000000000000000000000000000000000000000000000000000000\n      dup2\n      mstore\n      0x04\n      add\n      dup1\n      dup1\n      0x20\n      add\n      dup3\n      dup2\n      sub\n      dup3\n      mstore\n      0x0d\n      dup2\n      mstore\n      0x20\n      add\n      dup1\n      0x496e76616c696420696e64657800000000000000000000000000000000000000\n      dup2\n      mstore\n      pop\n      0x20\n      add\n      swap2\n      pop\n      pop\n      mload(0x40)\n      dup1\n      swap2\n      sub\n      swap1\n      revert\n    tag_60:\n        /* \"contracts/Array_2.sol\":1326:1337  phoneNumber */\n      0x02\n        /* \"contracts/Array_2.sol\":1338:1344  _index */\n      dup3\n        /* \"contracts/Array_2.sol\":1326:1345  phoneNumber[_index] */\n      dup2\n      sload\n      dup2\n      lt\n      tag_61\n      jumpi\n      invalid\n    tag_61:\n      swap1\n      0x00\n      mstore\n      keccak256(0x00, 0x20)\n      add\n      sload\n        /* \"contracts/Array_2.sol\":1319:1345  return phoneNumber[_index] */\n      swap1\n      pop\n        /* \"contracts/Array_2.sol\":1179:1353  function getDynamicArray(uint _index) public view returns (uint) {\r... */\n      swap2\n      swap1\n      pop\n      jump\t// out\n\n    auxdata: 0xa2646970667358221220dd070617354baba7d5a1af59e64bdfe7ae9166fc5feaa8780f03c2231ca7cbed64736f6c634300060c0033\n}\n",
				"bytecode": {
					"linkReferences": {},
					"object": "608060405234801561001057600080fd5b506106cc806100206000396000f3fe608060405234801561001057600080fd5b50600436106100885760003560e01c806371bb2e391161005b57806371bb2e3914610169578063abebb54f146101c8578063d83d2b95146101f6578063f4c86ca91461022457610088565b80631e3d73a11461008d5780633f26c8ee146100cb57806355bc1d3c14610103578063575bfc4614610121575b600080fd5b6100c9600480360360408110156100a357600080fd5b81019080803560ff169060200190929190803560ff169060200190929190505050610266565b005b610101600480360360408110156100e157600080fd5b810190808035906020019092919080359060200190929190505050610359565b005b61010b6103f3565b6040518082815260200191505060405180910390f35b6101506004803603602081101561013757600080fd5b81019080803560ff169060200190929190505050610400565b604051808260ff16815260200191505060405180910390f35b6101716104a8565b6040518080602001828103825283818151815260200191508051906020019060200280838360005b838110156101b4578082015181840152602081019050610199565b505050509050019250505060405180910390f35b6101f4600480360360208110156101de57600080fd5b8101908080359060200190929190505050610500565b005b6102226004803603602081101561020c57600080fd5b8101908080359060200190929190505050610563565b005b6102506004803603602081101561023a57600080fd5b81019080803590602001909291905050506105fb565b6040518082815260200191505060405180910390f35b60328260ff16106102df576040517f08c379a000000000000000000000000000000000000000000000000000000000815260040180806020018281038252601a8152602001807f496e646578206f7574206f6620626f756e64732028302d34392900000000000081525060200191505060405180910390fd5b8060008360ff16603281106102f057fe5b602091828204019190066101000a81548160ff021916908360ff1602179055507fe709d237b9abb48e7255ee2a00fb543cf1138ff217ef3553a3adaaaee9c4924a8282604051808360ff1681526020018260ff1681526020019250505060405180910390a15050565b60028054905082106103d3576040517f08c379a00000000000000000000000000000000000000000000000000000000081526004018080602001828103825260128152602001807f496e646578206f7574206f662072616e6765000000000000000000000000000081525060200191505060405180910390fd5b80600283815481106103e157fe5b90600052602060002001819055505050565b6000600280549050905090565b600060328260ff161061047b576040517f08c379a000000000000000000000000000000000000000000000000000000000815260040180806020018281038252601a8152602001807f496e646578206f7574206f6620626f756e64732028302d34392900000000000081525060200191505060405180910390fd5b60008260ff166032811061048b57fe5b602091828204019190069054906101000a900460ff169050919050565b606060028054806020026020016040519081016040528092919081815260200182805480156104f657602002820191906000526020600020905b8154815260200190600101908083116104e2575b5050505050905090565b60028190806001815401808255809150506001900390600052602060002001600090919091909150557fea4e41ad5913b7f3f021284d839f8cf84e390c47377463895e671303785d5dbd816040518082815260200191505060405180910390a150565b60028054905081106105dd576040517f08c379a000000000000000000000000000000000000000000000000000000000815260040180806020018281038252600d8152602001807f496e76616c696420696e6465780000000000000000000000000000000000000081525060200191505060405180910390fd5b600281815481106105ea57fe5b906000526020600020016000905550565b60006002805490508210610677576040517f08c379a000000000000000000000000000000000000000000000000000000000815260040180806020018281038252600d8152602001807f496e76616c696420696e6465780000000000000000000000000000000000000081525060200191505060405180910390fd5b6002828154811061068457fe5b9060005260206000200154905091905056fea2646970667358221220dd070617354baba7d5a1af59e64bdfe7ae9166fc5feaa8780f03c2231ca7cbed64736f6c634300060c0033",
					"opcodes": "PUSH1 0x80 PUSH1 0x40 MSTORE CALLVALUE DUP1 ISZERO PUSH2 0x10 JUMPI PUSH1 0x0 DUP1 REVERT JUMPDEST POP PUSH2 0x6CC DUP1 PUSH2 0x20 PUSH1 0x0 CODECOPY PUSH1 0x0 RETURN INVALID PUSH1 0x80 PUSH1 0x40 MSTORE CALLVALUE DUP1 ISZERO PUSH2 0x10 JUMPI PUSH1 0x0 DUP1 REVERT JUMPDEST POP PUSH1 0x4 CALLDATASIZE LT PUSH2 0x88 JUMPI PUSH1 0x0 CALLDATALOAD PUSH1 0xE0 SHR DUP1 PUSH4 0x71BB2E39 GT PUSH2 0x5B JUMPI DUP1 PUSH4 0x71BB2E39 EQ PUSH2 0x169 JUMPI DUP1 PUSH4 0xABEBB54F EQ PUSH2 0x1C8 JUMPI DUP1 PUSH4 0xD83D2B95 EQ PUSH2 0x1F6 JUMPI DUP1 PUSH4 0xF4C86CA9 EQ PUSH2 0x224 JUMPI PUSH2 0x88 JUMP JUMPDEST DUP1 PUSH4 0x1E3D73A1 EQ PUSH2 0x8D JUMPI DUP1 PUSH4 0x3F26C8EE EQ PUSH2 0xCB JUMPI DUP1 PUSH4 0x55BC1D3C EQ PUSH2 0x103 JUMPI DUP1 PUSH4 0x575BFC46 EQ PUSH2 0x121 JUMPI JUMPDEST PUSH1 0x0 DUP1 REVERT JUMPDEST PUSH2 0xC9 PUSH1 0x4 DUP1 CALLDATASIZE SUB PUSH1 0x40 DUP2 LT ISZERO PUSH2 0xA3 JUMPI PUSH1 0x0 DUP1 REVERT JUMPDEST DUP2 ADD SWAP1 DUP1 DUP1 CALLDATALOAD PUSH1 0xFF AND SWAP1 PUSH1 0x20 ADD SWAP1 SWAP3 SWAP2 SWAP1 DUP1 CALLDATALOAD PUSH1 0xFF AND SWAP1 PUSH1 0x20 ADD SWAP1 SWAP3 SWAP2 SWAP1 POP POP POP PUSH2 0x266 JUMP JUMPDEST STOP JUMPDEST PUSH2 0x101 PUSH1 0x4 DUP1 CALLDATASIZE SUB PUSH1 0x40 DUP2 LT ISZERO PUSH2 0xE1 JUMPI PUSH1 0x0 DUP1 REVERT JUMPDEST DUP2 ADD SWAP1 DUP1 DUP1 CALLDATALOAD SWAP1 PUSH1 0x20 ADD SWAP1 SWAP3 SWAP2 SWAP1 DUP1 CALLDATALOAD SWAP1 PUSH1 0x20 ADD SWAP1 SWAP3 SWAP2 SWAP1 POP POP POP PUSH2 0x359 JUMP JUMPDEST STOP JUMPDEST PUSH2 0x10B PUSH2 0x3F3 JUMP JUMPDEST PUSH1 0x40 MLOAD DUP1 DUP3 DUP2 MSTORE PUSH1 0x20 ADD SWAP2 POP POP PUSH1 0x40 MLOAD DUP1 SWAP2 SUB SWAP1 RETURN JUMPDEST PUSH2 0x150 PUSH1 0x4 DUP1 CALLDATASIZE SUB PUSH1 0x20 DUP2 LT ISZERO PUSH2 0x137 JUMPI PUSH1 0x0 DUP1 REVERT JUMPDEST DUP2 ADD SWAP1 DUP1 DUP1 CALLDATALOAD PUSH1 0xFF AND SWAP1 PUSH1 0x20 ADD SWAP1 SWAP3 SWAP2 SWAP1 POP POP POP PUSH2 0x400 JUMP JUMPDEST PUSH1 0x40 MLOAD DUP1 DUP3 PUSH1 0xFF AND DUP2 MSTORE PUSH1 0x20 ADD SWAP2 POP POP PUSH1 0x40 MLOAD DUP1 SWAP2 SUB SWAP1 RETURN JUMPDEST PUSH2 0x171 PUSH2 0x4A8 JUMP JUMPDEST PUSH1 0x40 MLOAD DUP1 DUP1 PUSH1 0x20 ADD DUP3 DUP2 SUB DUP3 MSTORE DUP4 DUP2 DUP2 MLOAD DUP2 MSTORE PUSH1 0x20 ADD SWAP2 POP DUP1 MLOAD SWAP1 PUSH1 0x20 ADD SWAP1 PUSH1 0x20 MUL DUP1 DUP4 DUP4 PUSH1 0x0 JUMPDEST DUP4 DUP2 LT ISZERO PUSH2 0x1B4 JUMPI DUP1 DUP3 ADD MLOAD DUP2 DUP5 ADD MSTORE PUSH1 0x20 DUP2 ADD SWAP1 POP PUSH2 0x199 JUMP JUMPDEST POP POP POP POP SWAP1 POP ADD SWAP3 POP POP POP PUSH1 0x40 MLOAD DUP1 SWAP2 SUB SWAP1 RETURN JUMPDEST PUSH2 0x1F4 PUSH1 0x4 DUP1 CALLDATASIZE SUB PUSH1 0x20 DUP2 LT ISZERO PUSH2 0x1DE JUMPI PUSH1 0x0 DUP1 REVERT JUMPDEST DUP2 ADD SWAP1 DUP1 DUP1 CALLDATALOAD SWAP1 PUSH1 0x20 ADD SWAP1 SWAP3 SWAP2 SWAP1 POP POP POP PUSH2 0x500 JUMP JUMPDEST STOP JUMPDEST PUSH2 0x222 PUSH1 0x4 DUP1 CALLDATASIZE SUB PUSH1 0x20 DUP2 LT ISZERO PUSH2 0x20C JUMPI PUSH1 0x0 DUP1 REVERT JUMPDEST DUP2 ADD SWAP1 DUP1 DUP1 CALLDATALOAD SWAP1 PUSH1 0x20 ADD SWAP1 SWAP3 SWAP2 SWAP1 POP POP POP PUSH2 0x563 JUMP JUMPDEST STOP JUMPDEST PUSH2 0x250 PUSH1 0x4 DUP1 CALLDATASIZE SUB PUSH1 0x20 DUP2 LT ISZERO PUSH2 0x23A JUMPI PUSH1 0x0 DUP1 REVERT JUMPDEST DUP2 ADD SWAP1 DUP1 DUP1 CALLDATALOAD SWAP1 PUSH1 0x20 ADD SWAP1 SWAP3 SWAP2 SWAP1 POP POP POP PUSH2 0x5FB JUMP JUMPDEST PUSH1 0x40 MLOAD DUP1 DUP3 DUP2 MSTORE PUSH1 0x20 ADD SWAP2 POP POP PUSH1 0x40 MLOAD DUP1 SWAP2 SUB SWAP1 RETURN JUMPDEST PUSH1 0x32 DUP3 PUSH1 0xFF AND LT PUSH2 0x2DF JUMPI PUSH1 0x40 MLOAD PUSH32 0x8C379A000000000000000000000000000000000000000000000000000000000 DUP2 MSTORE PUSH1 0x4 ADD DUP1 DUP1 PUSH1 0x20 ADD DUP3 DUP2 SUB DUP3 MSTORE PUSH1 0x1A DUP2 MSTORE PUSH1 0x20 ADD DUP1 PUSH32 0x496E646578206F7574206F6620626F756E64732028302D343929000000000000 DUP2 MSTORE POP PUSH1 0x20 ADD SWAP2 POP POP PUSH1 0x40 MLOAD DUP1 SWAP2 SUB SWAP1 REVERT JUMPDEST DUP1 PUSH1 0x0 DUP4 PUSH1 0xFF AND PUSH1 0x32 DUP2 LT PUSH2 0x2F0 JUMPI INVALID JUMPDEST PUSH1 0x20 SWAP2 DUP3 DUP3 DIV ADD SWAP2 SWAP1 MOD PUSH2 0x100 EXP DUP2 SLOAD DUP2 PUSH1 0xFF MUL NOT AND SWAP1 DUP4 PUSH1 0xFF AND MUL OR SWAP1 SSTORE POP PUSH32 0xE709D237B9ABB48E7255EE2A00FB543CF1138FF217EF3553A3ADAAAEE9C4924A DUP3 DUP3 PUSH1 0x40 MLOAD DUP1 DUP4 PUSH1 0xFF AND DUP2 MSTORE PUSH1 0x20 ADD DUP3 PUSH1 0xFF AND DUP2 MSTORE PUSH1 0x20 ADD SWAP3 POP POP POP PUSH1 0x40 MLOAD DUP1 SWAP2 SUB SWAP1 LOG1 POP POP JUMP JUMPDEST PUSH1 0x2 DUP1 SLOAD SWAP1 POP DUP3 LT PUSH2 0x3D3 JUMPI PUSH1 0x40 MLOAD PUSH32 0x8C379A000000000000000000000000000000000000000000000000000000000 DUP2 MSTORE PUSH1 0x4 ADD DUP1 DUP1 PUSH1 0x20 ADD DUP3 DUP2 SUB DUP3 MSTORE PUSH1 0x12 DUP2 MSTORE PUSH1 0x20 ADD DUP1 PUSH32 0x496E646578206F7574206F662072616E67650000000000000000000000000000 DUP2 MSTORE POP PUSH1 0x20 ADD SWAP2 POP POP PUSH1 0x40 MLOAD DUP1 SWAP2 SUB SWAP1 REVERT JUMPDEST DUP1 PUSH1 0x2 DUP4 DUP2 SLOAD DUP2 LT PUSH2 0x3E1 JUMPI INVALID JUMPDEST SWAP1 PUSH1 0x0 MSTORE PUSH1 0x20 PUSH1 0x0 KECCAK256 ADD DUP2 SWAP1 SSTORE POP POP POP JUMP JUMPDEST PUSH1 0x0 PUSH1 0x2 DUP1 SLOAD SWAP1 POP SWAP1 POP SWAP1 JUMP JUMPDEST PUSH1 0x0 PUSH1 0x32 DUP3 PUSH1 0xFF AND LT PUSH2 0x47B JUMPI PUSH1 0x40 MLOAD PUSH32 0x8C379A000000000000000000000000000000000000000000000000000000000 DUP2 MSTORE PUSH1 0x4 ADD DUP1 DUP1 PUSH1 0x20 ADD DUP3 DUP2 SUB DUP3 MSTORE PUSH1 0x1A DUP2 MSTORE PUSH1 0x20 ADD DUP1 PUSH32 0x496E646578206F7574206F6620626F756E64732028302D343929000000000000 DUP2 MSTORE POP PUSH1 0x20 ADD SWAP2 POP POP PUSH1 0x40 MLOAD DUP1 SWAP2 SUB SWAP1 REVERT JUMPDEST PUSH1 0x0 DUP3 PUSH1 0xFF AND PUSH1 0x32 DUP2 LT PUSH2 0x48B JUMPI INVALID JUMPDEST PUSH1 0x20 SWAP2 DUP3 DUP3 DIV ADD SWAP2 SWAP1 MOD SWAP1 SLOAD SWAP1 PUSH2 0x100 EXP SWAP1 DIV PUSH1 0xFF AND SWAP1 POP SWAP2 SWAP1 POP JUMP JUMPDEST PUSH1 0x60 PUSH1 0x2 DUP1 SLOAD DUP1 PUSH1 0x20 MUL PUSH1 0x20 ADD PUSH1 0x40 MLOAD SWAP1 DUP2 ADD PUSH1 0x40 MSTORE DUP1 SWAP3 SWAP2 SWAP1 DUP2 DUP2 MSTORE PUSH1 0x20 ADD DUP3 DUP1 SLOAD DUP1 ISZERO PUSH2 0x4F6 JUMPI PUSH1 0x20 MUL DUP3 ADD SWAP2 SWAP1 PUSH1 0x0 MSTORE PUSH1 0x20 PUSH1 0x0 KECCAK256 SWAP1 JUMPDEST DUP2 SLOAD DUP2 MSTORE PUSH1 0x20 ADD SWAP1 PUSH1 0x1 ADD SWAP1 DUP1 DUP4 GT PUSH2 0x4E2 JUMPI JUMPDEST POP POP POP POP POP SWAP1 POP SWAP1 JUMP JUMPDEST PUSH1 0x2 DUP2 SWAP1 DUP1 PUSH1 0x1 DUP2 SLOAD ADD DUP1 DUP3 SSTORE DUP1 SWAP2 POP POP PUSH1 0x1 SWAP1 SUB SWAP1 PUSH1 0x0 MSTORE PUSH1 0x20 PUSH1 0x0 KECCAK256 ADD PUSH1 0x0 SWAP1 SWAP2 SWAP1 SWAP2 SWAP1 SWAP2 POP SSTORE PUSH32 0xEA4E41AD5913B7F3F021284D839F8CF84E390C47377463895E671303785D5DBD DUP2 PUSH1 0x40 MLOAD DUP1 DUP3 DUP2 MSTORE PUSH1 0x20 ADD SWAP2 POP POP PUSH1 0x40 MLOAD DUP1 SWAP2 SUB SWAP1 LOG1 POP JUMP JUMPDEST PUSH1 0x2 DUP1 SLOAD SWAP1 POP DUP2 LT PUSH2 0x5DD JUMPI PUSH1 0x40 MLOAD PUSH32 0x8C379A000000000000000000000000000000000000000000000000000000000 DUP2 MSTORE PUSH1 0x4 ADD DUP1 DUP1 PUSH1 0x20 ADD DUP3 DUP2 SUB DUP3 MSTORE PUSH1 0xD DUP2 MSTORE PUSH1 0x20 ADD DUP1 PUSH32 0x496E76616C696420696E64657800000000000000000000000000000000000000 DUP2 MSTORE POP PUSH1 0x20 ADD SWAP2 POP POP PUSH1 0x40 MLOAD DUP1 SWAP2 SUB SWAP1 REVERT JUMPDEST PUSH1 0x2 DUP2 DUP2 SLOAD DUP2 LT PUSH2 0x5EA JUMPI INVALID JUMPDEST SWAP1 PUSH1 0x0 MSTORE PUSH1 0x20 PUSH1 0x0 KECCAK256 ADD PUSH1 0x0 SWAP1 SSTORE POP JUMP JUMPDEST PUSH1 0x0 PUSH1 0x2 DUP1 SLOAD SWAP1 POP DUP3 LT PUSH2 0x677 JUMPI PUSH1 0x40 MLOAD PUSH32 0x8C379A000000000000000000000000000000000000000000000000000000000 DUP2 MSTORE PUSH1 0x4 ADD DUP1 DUP1 PUSH1 0x20 ADD DUP3 DUP2 SUB DUP3 MSTORE PUSH1 0xD DUP2 MSTORE PUSH1 0x20 ADD DUP1 PUSH32 0x496E76616C696420696E64657800000000000000000000000000000000000000 DUP2 MSTORE POP PUSH1 0x20 ADD SWAP2 POP POP PUSH1 0x40 MLOAD DUP1 SWAP2 SUB SWAP1 REVERT JUMPDEST PUSH1 0x2 DUP3 DUP2 SLOAD DUP2 LT PUSH2 0x684 JUMPI INVALID JUMPDEST SWAP1 PUSH1 0x0 MSTORE PUSH1 0x20 PUSH1 0x0 KECCAK256 ADD SLOAD SWAP1 POP SWAP2 SWAP1 POP JUMP INVALID LOG2 PUSH5 0x6970667358 0x22 SLT KECCAK256 0xDD SMOD MOD OR CALLDATALOAD 0x4B 0xAB 0xA7 0xD5 LOG1 0xAF MSIZE 0xE6 0x4B 0xDF 0xE7 0xAE SWAP2 PUSH7 0xFC5FEAA8780F03 0xC2 0x23 SHR 0xA7 0xCB 0xED PUSH5 0x736F6C6343 STOP MOD 0xC STOP CALLER "
				},
				"gasEstimates": {
					"creation": {
						"codeDepositCost": "348000",
						"executionCost": "386",
						"totalCost": "348386"
					},
					"external": {
						"deletePhoneNumber(uint256)": "6992",
						"getAllPhoneNumbers()": "infinite",
						"getData(uint8)": "2904",
						"getDynamicArray(uint256)": "2877",
						"getPhoneNumberCount()": "1066",
						"setData(uint8,uint8)": "24184",
						"setDynamicArray(uint256)": "42240",
						"updatePhoneNumber(uint256,uint256)": "22005"
					}
				},
				"methodIdentifiers": {
					"deletePhoneNumber(uint256)": "d83d2b95",
					"getAllPhoneNumbers()": "71bb2e39",
					"getData(uint8)": "575bfc46",
					"getDynamicArray(uint256)": "f4c86ca9",
					"getPhoneNumberCount()": "55bc1d3c",
					"setData(uint8,uint8)": "1e3d73a1",
					"setDynamicArray(uint256)": "abebb54f",
					"updatePhoneNumber(uint256,uint256)": "3f26c8ee"
				}
			},
			"storageLayout": {
				"storage": [
					{
						"astId": 5,
						"contract": "contracts/Array_2.sol:arraySample",
						"label": "age",
						"offset": 0,
						"slot": "0",
						"type": "t_array(t_uint8)50_storage"
					},
					{
						"astId": 8,
						"contract": "contracts/Array_2.sol:arraySample",
						"label": "phoneNumber",
						"offset": 0,
						"slot": "2",
						"type": "t_array(t_uint256)dyn_storage"
					}
				],
				"types": {
					"t_array(t_uint256)dyn_storage": {
						"base": "t_uint256",
						"encoding": "dynamic_array",
						"label": "uint256[]",
						"numberOfBytes": "32"
					},
					"t_array(t_uint8)50_storage": {
						"base": "t_uint8",
						"encoding": "inplace",
						"label": "uint8[50]",
						"numberOfBytes": "64"
					},
					"t_uint256": {
						"encoding": "inplace",
						"label": "uint256",
						"numberOfBytes": "32"
					},
					"t_uint8": {
						"encoding": "inplace",
						"label": "uint8",
						"numberOfBytes": "1"
					}
				}
			},
			"userdoc": {
				"kind": "user",
				"methods": {},
				"version": 1
			}
		}
	}
}