{
	"contracts/Array_1.sol": {
		"arraySample": {
			"abi": [
				{
					"inputs": [
						{
							"internalType": "uint8",
							"name": "_index",
							"type": "uint8"
						}
					],
					"name": "getData",
					"outputs": [
						{
							"internalType": "uint8",
							"name": "",
							"type": "uint8"
						}
					],
					"stateMutability": "view",
					"type": "function"
				},
				{
					"inputs": [
						{
							"internalType": "uint256",
							"name": "_index",
							"type": "uint256"
						}
					],
					"name": "getDynamicArray",
					"outputs": [
						{
							"internalType": "uint256",
							"name": "",
							"type": "uint256"
						}
					],
					"stateMutability": "view",
					"type": "function"
				},
				{
					"inputs": [
						{
							"internalType": "uint8",
							"name": "index",
							"type": "uint8"
						},
						{
							"internalType": "uint8",
							"name": "value",
							"type": "uint8"
						}
					],
					"name": "setData",
					"outputs": [],
					"stateMutability": "nonpayable",
					"type": "function"
				},
				{
					"inputs": [
						{
							"internalType": "uint256",
							"name": "_phoneno",
							"type": "uint256"
						}
					],
					"name": "setDynamicArray",
					"outputs": [],
					"stateMutability": "nonpayable",
					"type": "function"
				}
			],
			"devdoc": {
				"kind": "dev",
				"methods": {},
				"version": 1
			},
			"evm": {
				"assembly": "    /* \"contracts/Array_1.sol\":60:699  contract arraySample{\r... */\n  mstore(0x40, 0x80)\n  callvalue\n  dup1\n  iszero\n  tag_1\n  jumpi\n  0x00\n  dup1\n  revert\ntag_1:\n  pop\n  dataSize(sub_0)\n  dup1\n  dataOffset(sub_0)\n  0x00\n  codecopy\n  0x00\n  return\nstop\n\nsub_0: assembly {\n        /* \"contracts/Array_1.sol\":60:699  contract arraySample{\r... */\n      mstore(0x40, 0x80)\n      callvalue\n      dup1\n      iszero\n      tag_1\n      jumpi\n      0x00\n      dup1\n      revert\n    tag_1:\n      pop\n      jumpi(tag_2, lt(calldatasize, 0x04))\n      shr(0xe0, calldataload(0x00))\n      dup1\n      0x1e3d73a1\n      eq\n      tag_3\n      jumpi\n      dup1\n      0x575bfc46\n      eq\n      tag_4\n      jumpi\n      dup1\n      0xabebb54f\n      eq\n      tag_5\n      jumpi\n      dup1\n      0xf4c86ca9\n      eq\n      tag_6\n      jumpi\n    tag_2:\n      0x00\n      dup1\n      revert\n        /* \"contracts/Array_1.sol\":230:317  function setData(uint8 index, uint8 value) public {\r... */\n    tag_3:\n      tag_7\n      0x04\n      dup1\n      calldatasize\n      sub\n      0x40\n      dup2\n      lt\n      iszero\n      tag_8\n      jumpi\n      0x00\n      dup1\n      revert\n    tag_8:\n      dup2\n      add\n      swap1\n      dup1\n      dup1\n      calldataload\n      0xff\n      and\n      swap1\n      0x20\n      add\n      swap1\n      swap3\n      swap2\n      swap1\n      dup1\n      calldataload\n      0xff\n      and\n      swap1\n      0x20\n      add\n      swap1\n      swap3\n      swap2\n      swap1\n      pop\n      pop\n      pop\n      tag_9\n      jump\t// in\n    tag_7:\n      stop\n        /* \"contracts/Array_1.sol\":325:422  function getData (uint8 _index) public view returns (uint8) {\r... */\n    tag_4:\n      tag_10\n      0x04\n      dup1\n      calldatasize\n      sub\n      0x20\n      dup2\n      lt\n      iszero\n      tag_11\n      jumpi\n      0x00\n      dup1\n      revert\n    tag_11:\n      dup2\n      add\n      swap1\n      dup1\n      dup1\n      calldataload\n      0xff\n      and\n      swap1\n      0x20\n      add\n      swap1\n      swap3\n      swap2\n      swap1\n      pop\n      pop\n      pop\n      tag_12\n      jump\t// in\n    tag_10:\n      mload(0x40)\n      dup1\n      dup3\n      0xff\n      and\n      dup2\n      mstore\n      0x20\n      add\n      swap2\n      pop\n      pop\n      mload(0x40)\n      dup1\n      swap2\n      sub\n      swap1\n      return\n        /* \"contracts/Array_1.sol\":477:580  function setDynamicArray (uint _phoneno) public {\r... */\n    tag_5:\n      tag_13\n      0x04\n      dup1\n      calldatasize\n      sub\n      0x20\n      dup2\n      lt\n      iszero\n      tag_14\n      jumpi\n      0x00\n      dup1\n      revert\n    tag_14:\n      dup2\n      add\n      swap1\n      dup1\n      dup1\n      calldataload\n      swap1\n      0x20\n      add\n      swap1\n      swap3\n      swap2\n      swap1\n      pop\n      pop\n      pop\n      tag_15\n      jump\t// in\n    tag_13:\n      stop\n        /* \"contracts/Array_1.sol\":586:696  function getDynamicArray (uint _index) public view returns(uint) {\r... */\n    tag_6:\n      tag_16\n      0x04\n      dup1\n      calldatasize\n      sub\n      0x20\n      dup2\n      lt\n      iszero\n      tag_17\n      jumpi\n      0x00\n      dup1\n      revert\n    tag_17:\n      dup2\n      add\n      swap1\n      dup1\n      dup1\n      calldataload\n      swap1\n      0x20\n      add\n      swap1\n      swap3\n      swap2\n      swap1\n      pop\n      pop\n      pop\n      tag_18\n      jump\t// in\n    tag_16:\n      mload(0x40)\n      dup1\n      dup3\n      dup2\n      mstore\n      0x20\n      add\n      swap2\n      pop\n      pop\n      mload(0x40)\n      dup1\n      swap2\n      sub\n      swap1\n      return\n        /* \"contracts/Array_1.sol\":230:317  function setData(uint8 index, uint8 value) public {\r... */\n    tag_9:\n        /* \"contracts/Array_1.sol\":304:309  value */\n      dup1\n        /* \"contracts/Array_1.sol\":291:294  age */\n      0x00\n        /* \"contracts/Array_1.sol\":295:300  index */\n      dup4\n        /* \"contracts/Array_1.sol\":291:301  age[index] */\n      0xff\n      and\n      0x32\n      dup2\n      lt\n      tag_20\n      jumpi\n      invalid\n    tag_20:\n      0x20\n      swap2\n      dup3\n      dup3\n      div\n      add\n      swap2\n      swap1\n      mod\n        /* \"contracts/Array_1.sol\":291:309  age[index] = value */\n      0x0100\n      exp\n      dup2\n      sload\n      dup2\n      0xff\n      mul\n      not\n      and\n      swap1\n      dup4\n      0xff\n      and\n      mul\n      or\n      swap1\n      sstore\n      pop\n        /* \"contracts/Array_1.sol\":230:317  function setData(uint8 index, uint8 value) public {\r... */\n      pop\n      pop\n      jump\t// out\n        /* \"contracts/Array_1.sol\":325:422  function getData (uint8 _index) public view returns (uint8) {\r... */\n    tag_12:\n        /* \"contracts/Array_1.sol\":378:383  uint8 */\n      0x00\n        /* \"contracts/Array_1.sol\":403:406  age */\n      dup1\n        /* \"contracts/Array_1.sol\":407:413  _index */\n      dup3\n        /* \"contracts/Array_1.sol\":403:414  age[_index] */\n      0xff\n      and\n      0x32\n      dup2\n      lt\n      tag_23\n      jumpi\n      invalid\n    tag_23:\n      0x20\n      swap2\n      dup3\n      dup3\n      div\n      add\n      swap2\n      swap1\n      mod\n      swap1\n      sload\n      swap1\n      0x0100\n      exp\n      swap1\n      div\n      0xff\n      and\n        /* \"contracts/Array_1.sol\":396:414  return age[_index] */\n      swap1\n      pop\n        /* \"contracts/Array_1.sol\":325:422  function getData (uint8 _index) public view returns (uint8) {\r... */\n      swap2\n      swap1\n      pop\n      jump\t// out\n        /* \"contracts/Array_1.sol\":477:580  function setDynamicArray (uint _phoneno) public {\r... */\n    tag_15:\n        /* \"contracts/Array_1.sol\":536:547  phoneNumber */\n      0x02\n        /* \"contracts/Array_1.sol\":553:561  _phoneno */\n      dup2\n        /* \"contracts/Array_1.sol\":536:562  phoneNumber.push(_phoneno) */\n      swap1\n      dup1\n      0x01\n      dup2\n      sload\n      add\n      dup1\n      dup3\n      sstore\n      dup1\n      swap2\n      pop\n      pop\n      0x01\n      swap1\n      sub\n      swap1\n      0x00\n      mstore\n      keccak256(0x00, 0x20)\n      add\n      0x00\n      swap1\n      swap2\n      swap1\n      swap2\n      swap1\n      swap2\n      pop\n      sstore\n        /* \"contracts/Array_1.sol\":477:580  function setDynamicArray (uint _phoneno) public {\r... */\n      pop\n      jump\t// out\n        /* \"contracts/Array_1.sol\":586:696  function getDynamicArray (uint _index) public view returns(uint) {\r... */\n    tag_18:\n        /* \"contracts/Array_1.sol\":645:649  uint */\n      0x00\n        /* \"contracts/Array_1.sol\":669:680  phoneNumber */\n      0x02\n        /* \"contracts/Array_1.sol\":681:687  _index */\n      dup3\n        /* \"contracts/Array_1.sol\":669:688  phoneNumber[_index] */\n      dup2\n      sload\n      dup2\n      lt\n      tag_28\n      jumpi\n      invalid\n    tag_28:\n      swap1\n      0x00\n      mstore\n      keccak256(0x00, 0x20)\n      add\n      sload\n        /* \"contracts/Array_1.sol\":662:688  return phoneNumber[_index] */\n      swap1\n      pop\n        /* \"contracts/Array_1.sol\":586:696  function getDynamicArray (uint _index) public view returns(uint) {\r... */\n      swap2\n      swap1\n      pop\n      jump\t// out\n\n    auxdata: 0xa2646970667358221220d6a7109b179a4ffea68e6a576dfbe6ce1e4faeb749209dfa40f2377647552ca964736f6c634300060c0033\n}\n",
				"bytecode": {
					"linkReferences": {},
					"object": "608060405234801561001057600080fd5b5061022d806100206000396000f3fe608060405234801561001057600080fd5b506004361061004c5760003560e01c80631e3d73a114610051578063575bfc461461008f578063abebb54f146100d7578063f4c86ca914610105575b600080fd5b61008d6004803603604081101561006757600080fd5b81019080803560ff169060200190929190803560ff169060200190929190505050610147565b005b6100be600480360360208110156100a557600080fd5b81019080803560ff16906020019092919050505061017c565b604051808260ff16815260200191505060405180910390f35b610103600480360360208110156100ed57600080fd5b81019080803590602001909291905050506101aa565b005b6101316004803603602081101561011b57600080fd5b81019080803590602001909291905050506101d6565b6040518082815260200191505060405180910390f35b8060008360ff166032811061015857fe5b602091828204019190066101000a81548160ff021916908360ff1602179055505050565b6000808260ff166032811061018d57fe5b602091828204019190069054906101000a900460ff169050919050565b600281908060018154018082558091505060019003906000526020600020016000909190919091505550565b6000600282815481106101e557fe5b9060005260206000200154905091905056fea2646970667358221220d6a7109b179a4ffea68e6a576dfbe6ce1e4faeb749209dfa40f2377647552ca964736f6c634300060c0033",
					"opcodes": "PUSH1 0x80 PUSH1 0x40 MSTORE CALLVALUE DUP1 ISZERO PUSH2 0x10 JUMPI PUSH1 0x0 DUP1 REVERT JUMPDEST POP PUSH2 0x22D DUP1 PUSH2 0x20 PUSH1 0x0 CODECOPY PUSH1 0x0 RETURN INVALID PUSH1 0x80 PUSH1 0x40 MSTORE CALLVALUE DUP1 ISZERO PUSH2 0x10 JUMPI PUSH1 0x0 DUP1 REVERT JUMPDEST POP PUSH1 0x4 CALLDATASIZE LT PUSH2 0x4C JUMPI PUSH1 0x0 CALLDATALOAD PUSH1 0xE0 SHR DUP1 PUSH4 0x1E3D73A1 EQ PUSH2 0x51 JUMPI DUP1 PUSH4 0x575BFC46 EQ PUSH2 0x8F JUMPI DUP1 PUSH4 0xABEBB54F EQ PUSH2 0xD7 JUMPI DUP1 PUSH4 0xF4C86CA9 EQ PUSH2 0x105 JUMPI JUMPDEST PUSH1 0x0 DUP1 REVERT JUMPDEST PUSH2 0x8D PUSH1 0x4 DUP1 CALLDATASIZE SUB PUSH1 0x40 DUP2 LT ISZERO PUSH2 0x67 JUMPI PUSH1 0x0 DUP1 REVERT JUMPDEST DUP2 ADD SWAP1 DUP1 DUP1 CALLDATALOAD PUSH1 0xFF AND SWAP1 PUSH1 0x20 ADD SWAP1 SWAP3 SWAP2 SWAP1 DUP1 CALLDATALOAD PUSH1 0xFF AND SWAP1 PUSH1 0x20 ADD SWAP1 SWAP3 SWAP2 SWAP1 POP POP POP PUSH2 0x147 JUMP JUMPDEST STOP JUMPDEST PUSH2 0xBE PUSH1 0x4 DUP1 CALLDATASIZE SUB PUSH1 0x20 DUP2 LT ISZERO PUSH2 0xA5 JUMPI PUSH1 0x0 DUP1 REVERT JUMPDEST DUP2 ADD SWAP1 DUP1 DUP1 CALLDATALOAD PUSH1 0xFF AND SWAP1 PUSH1 0x20 ADD SWAP1 SWAP3 SWAP2 SWAP1 POP POP POP PUSH2 0x17C JUMP JUMPDEST PUSH1 0x40 MLOAD DUP1 DUP3 PUSH1 0xFF AND DUP2 MSTORE PUSH1 0x20 ADD SWAP2 POP POP PUSH1 0x40 MLOAD DUP1 SWAP2 SUB SWAP1 RETURN JUMPDEST PUSH2 0x103 PUSH1 0x4 DUP1 CALLDATASIZE SUB PUSH1 0x20 DUP2 LT ISZERO PUSH2 0xED JUMPI PUSH1 0x0 DUP1 REVERT JUMPDEST DUP2 ADD SWAP1 DUP1 DUP1 CALLDATALOAD SWAP1 PUSH1 0x20 ADD SWAP1 SWAP3 SWAP2 SWAP1 POP POP POP PUSH2 0x1AA JUMP JUMPDEST STOP JUMPDEST PUSH2 0x131 PUSH1 0x4 DUP1 CALLDATASIZE SUB PUSH1 0x20 DUP2 LT ISZERO PUSH2 0x11B JUMPI PUSH1 0x0 DUP1 REVERT JUMPDEST DUP2 ADD SWAP1 DUP1 DUP1 CALLDATALOAD SWAP1 PUSH1 0x20 ADD SWAP1 SWAP3 SWAP2 SWAP1 POP POP POP PUSH2 0x1D6 JUMP JUMPDEST PUSH1 0x40 MLOAD DUP1 DUP3 DUP2 MSTORE PUSH1 0x20 ADD SWAP2 POP POP PUSH1 0x40 MLOAD DUP1 SWAP2 SUB SWAP1 RETURN JUMPDEST DUP1 PUSH1 0x0 DUP4 PUSH1 0xFF AND PUSH1 0x32 DUP2 LT PUSH2 0x158 JUMPI INVALID JUMPDEST PUSH1 0x20 SWAP2 DUP3 DUP3 DIV ADD SWAP2 SWAP1 MOD PUSH2 0x100 EXP DUP2 SLOAD DUP2 PUSH1 0xFF MUL NOT AND SWAP1 DUP4 PUSH1 0xFF AND MUL OR SWAP1 SSTORE POP POP POP JUMP JUMPDEST PUSH1 0x0 DUP1 DUP3 PUSH1 0xFF AND PUSH1 0x32 DUP2 LT PUSH2 0x18D JUMPI INVALID JUMPDEST PUSH1 0x20 SWAP2 DUP3 DUP3 DIV ADD SWAP2 SWAP1 MOD SWAP1 SLOAD SWAP1 PUSH2 0x100 EXP SWAP1 DIV PUSH1 0xFF AND SWAP1 POP SWAP2 SWAP1 POP JUMP JUMPDEST PUSH1 0x2 DUP2 SWAP1 DUP1 PUSH1 0x1 DUP2 SLOAD ADD DUP1 DUP3 SSTORE DUP1 SWAP2 POP POP PUSH1 0x1 SWAP1 SUB SWAP1 PUSH1 0x0 MSTORE PUSH1 0x20 PUSH1 0x0 KECCAK256 ADD PUSH1 0x0 SWAP1 SWAP2 SWAP1 SWAP2 SWAP1 SWAP2 POP SSTORE POP JUMP JUMPDEST PUSH1 0x0 PUSH1 0x2 DUP3 DUP2 SLOAD DUP2 LT PUSH2 0x1E5 JUMPI INVALID JUMPDEST SWAP1 PUSH1 0x0 MSTORE PUSH1 0x20 PUSH1 0x0 KECCAK256 ADD SLOAD SWAP1 POP SWAP2 SWAP1 POP JUMP INVALID LOG2 PUSH5 0x6970667358 0x22 SLT KECCAK256 0xD6 0xA7 LT SWAP12 OR SWAP11 0x4F INVALID 0xA6 DUP15 PUSH11 0x576DFBE6CE1E4FAEB74920 SWAP14 STATICCALL BLOCKHASH CALLCODE CALLDATACOPY PUSH23 0x47552CA964736F6C634300060C00330000000000000000 "
				},
				"gasEstimates": {
					"creation": {
						"codeDepositCost": "111400",
						"executionCost": "159",
						"totalCost": "111559"
					},
					"external": {
						"getData(uint8)": "2808",
						"getDynamicArray(uint256)": "2024",
						"setData(uint8,uint8)": "22774",
						"setDynamicArray(uint256)": "41173"
					}
				},
				"methodIdentifiers": {
					"getData(uint8)": "575bfc46",
					"getDynamicArray(uint256)": "f4c86ca9",
					"setData(uint8,uint8)": "1e3d73a1",
					"setDynamicArray(uint256)": "abebb54f"
				}
			},
			"storageLayout": {
				"storage": [
					{
						"astId": 5,
						"contract": "contracts/Array_1.sol:arraySample",
						"label": "age",
						"offset": 0,
						"slot": "0",
						"type": "t_array(t_uint8)50_storage"
					},
					{
						"astId": 34,
						"contract": "contracts/Array_1.sol:arraySample",
						"label": "phoneNumber",
						"offset": 0,
						"slot": "2",
						"type": "t_array(t_uint256)dyn_storage"
					}
				],
				"types": {
					"t_array(t_uint256)dyn_storage": {
						"base": "t_uint256",
						"encoding": "dynamic_array",
						"label": "uint256[]",
						"numberOfBytes": "32"
					},
					"t_array(t_uint8)50_storage": {
						"base": "t_uint8",
						"encoding": "inplace",
						"label": "uint8[50]",
						"numberOfBytes": "64"
					},
					"t_uint256": {
						"encoding": "inplace",
						"label": "uint256",
						"numberOfBytes": "32"
					},
					"t_uint8": {
						"encoding": "inplace",
						"label": "uint8",
						"numberOfBytes": "1"
					}
				}
			},
			"userdoc": {
				"kind": "user",
				"methods": {},
				"version": 1
			}
		}
	}
}